{
  "_format": "hh-sol-artifact-1",
  "contractName": "WavePortal",
  "sourceName": "contracts/WavePortal.sol",
  "abi": [
    {
      "inputs": [],
      "stateMutability": "payable",
      "type": "constructor"
    },
    {
      "anonymous": false,
      "inputs": [
        {
          "indexed": true,
          "internalType": "address",
          "name": "from",
          "type": "address"
        },
        {
          "indexed": false,
          "internalType": "uint256",
          "name": "timestamp",
          "type": "uint256"
        },
        {
          "indexed": false,
          "internalType": "string",
          "name": "message",
          "type": "string"
        }
      ],
      "name": "NewWave",
      "type": "event"
    },
    {
      "inputs": [],
      "name": "getAllWaves",
      "outputs": [
        {
          "components": [
            {
              "internalType": "address",
              "name": "waver",
              "type": "address"
            },
            {
              "internalType": "string",
              "name": "message",
              "type": "string"
            },
            {
              "internalType": "uint256",
              "name": "timestamp",
              "type": "uint256"
            }
          ],
          "internalType": "struct WavePortal.Wave[]",
          "name": "",
          "type": "tuple[]"
        }
      ],
      "stateMutability": "view",
      "type": "function"
    },
    {
      "inputs": [],
      "name": "getTotalWaves",
      "outputs": [
        {
          "internalType": "uint256",
          "name": "",
          "type": "uint256"
        }
      ],
      "stateMutability": "view",
      "type": "function"
    },
    {
      "inputs": [
        {
          "internalType": "address",
          "name": "",
          "type": "address"
        }
      ],
      "name": "lastWavedTime",
      "outputs": [
        {
          "internalType": "uint256",
          "name": "",
          "type": "uint256"
        }
      ],
      "stateMutability": "view",
      "type": "function"
    },
    {
      "inputs": [],
      "name": "owner",
      "outputs": [
        {
          "internalType": "address",
          "name": "",
          "type": "address"
        }
      ],
      "stateMutability": "view",
      "type": "function"
    },
    {
      "inputs": [
        {
          "internalType": "string",
          "name": "_message",
          "type": "string"
        }
      ],
      "name": "wave",
      "outputs": [],
      "stateMutability": "nonpayable",
      "type": "function"
    }
  ],
  "bytecode": "0x6080604052336000806101000a81548173ffffffffffffffffffffffffffffffffffffffff021916908373ffffffffffffffffffffffffffffffffffffffff16021790555062000073604051806080016040528060458152602001620015c9604591396200009b60201b620006d61760201c565b60644442620000839190620001e8565b6200008f919062000285565b6002819055506200032c565b6200013b81604051602401620000b29190620001a8565b6040516020818303038152906040527f41304fac000000000000000000000000000000000000000000000000000000007bffffffffffffffffffffffffffffffffffffffffffffffffffffffff19166020820180517bffffffffffffffffffffffffffffffffffffffffffffffffffffffff83818316178352505050506200013e60201b60201c565b50565b60008151905060006a636f6e736f6c652e6c6f679050602083016000808483855afa5050505050565b60006200017482620001cc565b620001808185620001d7565b9350620001928185602086016200024f565b6200019d816200031b565b840191505092915050565b60006020820190508181036000830152620001c4818462000167565b905092915050565b600081519050919050565b600082825260208201905092915050565b6000620001f58262000245565b9150620002028362000245565b9250827fffffffffffffffffffffffffffffffffffffffffffffffffffffffffffffffff038211156200023a5762000239620002bd565b5b828201905092915050565b6000819050919050565b60005b838110156200026f57808201518184015260208101905062000252565b838111156200027f576000848401525b50505050565b6000620002928262000245565b91506200029f8362000245565b925082620002b257620002b1620002ec565b5b828206905092915050565b7f4e487b7100000000000000000000000000000000000000000000000000000000600052601160045260246000fd5b7f4e487b7100000000000000000000000000000000000000000000000000000000600052601260045260246000fd5b6000601f19601f8301169050919050565b61128d806200033c6000396000f3fe608060405234801561001057600080fd5b50600436106100575760003560e01c8063449d46c01461005c5780638da5cb5b146100785780639a2cdc0814610096578063bd43a908146100b4578063f69370ac146100d2575b600080fd5b61007660048036038101906100719190610ab8565b610102565b005b6100806104fe565b60405161008d9190610dbb565b60405180910390f35b61009e610522565b6040516100ab9190610f1f565b60405180910390f35b6100bc61056d565b6040516100c99190610dd6565b60405180910390f35b6100ec60048036038101906100e79190610a8f565b6106be565b6040516100f99190610f1f565b60405180910390f35b42610384600460003373ffffffffffffffffffffffffffffffffffffffff1673ffffffffffffffffffffffffffffffffffffffff16815260200190815260200160002054610150919061103c565b10610190576040517f08c379a000000000000000000000000000000000000000000000000000000000815260040161018790610eff565b60405180910390fd5b42600460003373ffffffffffffffffffffffffffffffffffffffff1673ffffffffffffffffffffffffffffffffffffffff1681526020019081526020016000208190555060018060008282546101e6919061103c565b9250508190555061022d6040518060400160405280601a81526020017f257320686173207761766564202f77206d657373616765202573000000000000815250338361076f565b600360405180606001604052803373ffffffffffffffffffffffffffffffffffffffff16815260200183815260200142815250908060018154018082558091505060019003906000526020600020906003020160009091909190915060008201518160000160006101000a81548173ffffffffffffffffffffffffffffffffffffffff021916908373ffffffffffffffffffffffffffffffffffffffff16021790555060208201518160010190805190602001906102ec92919061096f565b506040820151816002015550506064600254424461030a919061103c565b610314919061103c565b61031e9190611142565b6002819055506103656040518060400160405280601681526020017f52616e646f6d20232067656e6572617465643a2025640000000000000000000081525060025461080e565b6032600254116104ab576103ae6040518060400160405280600781526020017f257320776f6e2100000000000000000000000000000000000000000000000000815250336108aa565b60006509184e72a0009050478111156103fc576040517f08c379a00000000000000000000000000000000000000000000000000000000081526004016103f390610ebf565b60405180910390fd5b60003373ffffffffffffffffffffffffffffffffffffffff168260405161042290610da6565b60006040518083038185875af1925050503d806000811461045f576040519150601f19603f3d011682016040523d82523d6000602084013e610464565b606091505b50509050806104a8576040517f08c379a000000000000000000000000000000000000000000000000000000000815260040161049f90610edf565b60405180910390fd5b50505b3373ffffffffffffffffffffffffffffffffffffffff167f5f7e16dc676677766a70e9c5628aa6c54ddb8b6e5188e2ae1e1f17f1ffbea71642836040516104f3929190610f3a565b60405180910390a250565b60008054906101000a900473ffffffffffffffffffffffffffffffffffffffff1681565b60006105656040518060400160405280601481526020017f576527766520256420746f74616c20776176657300000000000000000000000081525060015461080e565b600154905090565b60606003805480602002602001604051908101604052809291908181526020016000905b828210156106b557838290600052602060002090600302016040518060600160405290816000820160009054906101000a900473ffffffffffffffffffffffffffffffffffffffff1673ffffffffffffffffffffffffffffffffffffffff1673ffffffffffffffffffffffffffffffffffffffff16815260200160018201805461061a90611110565b80601f016020809104026020016040519081016040528092919081815260200182805461064690611110565b80156106935780601f1061066857610100808354040283529160200191610693565b820191906000526020600020905b81548152906001019060200180831161067657829003601f168201915b5050505050815260200160028201548152505081526020019060010190610591565b50505050905090565b60046020528060005260406000206000915090505481565b61076c816040516024016106ea9190610df8565b6040516020818303038152906040527f41304fac000000000000000000000000000000000000000000000000000000007bffffffffffffffffffffffffffffffffffffffffffffffffffffffff19166020820180517bffffffffffffffffffffffffffffffffffffffffffffffffffffffff8381831617835250505050610946565b50565b61080983838360405160240161078793929190610e4a565b6040516020818303038152906040527fe0e9ad4f000000000000000000000000000000000000000000000000000000007bffffffffffffffffffffffffffffffffffffffffffffffffffffffff19166020820180517bffffffffffffffffffffffffffffffffffffffffffffffffffffffff8381831617835250505050610946565b505050565b6108a68282604051602401610824929190610e8f565b6040516020818303038152906040527f9710a9d0000000000000000000000000000000000000000000000000000000007bffffffffffffffffffffffffffffffffffffffffffffffffffffffff19166020820180517bffffffffffffffffffffffffffffffffffffffffffffffffffffffff8381831617835250505050610946565b5050565b61094282826040516024016108c0929190610e1a565b6040516020818303038152906040527f319af333000000000000000000000000000000000000000000000000000000007bffffffffffffffffffffffffffffffffffffffffffffffffffffffff19166020820180517bffffffffffffffffffffffffffffffffffffffffffffffffffffffff8381831617835250505050610946565b5050565b60008151905060006a636f6e736f6c652e6c6f679050602083016000808483855afa5050505050565b82805461097b90611110565b90600052602060002090601f01602090048101928261099d57600085556109e4565b82601f106109b657805160ff19168380011785556109e4565b828001600101855582156109e4579182015b828111156109e35782518255916020019190600101906109c8565b5b5090506109f191906109f5565b5090565b5b80821115610a0e5760008160009055506001016109f6565b5090565b6000610a25610a2084610f9b565b610f6a565b905082815260208101848484011115610a3d57600080fd5b610a488482856110ce565b509392505050565b600081359050610a5f81611240565b92915050565b600082601f830112610a7657600080fd5b8135610a86848260208601610a12565b91505092915050565b600060208284031215610aa157600080fd5b6000610aaf84828501610a50565b91505092915050565b600060208284031215610aca57600080fd5b600082013567ffffffffffffffff811115610ae457600080fd5b610af084828501610a65565b91505092915050565b6000610b058383610d38565b905092915050565b610b1681611092565b82525050565b610b2581611092565b82525050565b6000610b3682610fdb565b610b408185610ffe565b935083602082028501610b5285610fcb565b8060005b85811015610b8e5784840389528151610b6f8582610af9565b9450610b7a83610ff1565b925060208a01995050600181019050610b56565b50829750879550505050505092915050565b6000610bab82610fe6565b610bb5818561101a565b9350610bc58185602086016110dd565b610bce8161122f565b840191505092915050565b6000610be482610fe6565b610bee818561102b565b9350610bfe8185602086016110dd565b610c078161122f565b840191505092915050565b6000610c1f60348361102b565b91507f547279696e6720746f207769746864726177206d6f7265206d6f6e657920746860008301527f616e2074686520636f6e7472616374206861732e0000000000000000000000006020830152604082019050919050565b6000610c8560278361102b565b91507f4661696c656420746f207769746864726177206d6f6e65792066726f6d20636f60008301527f6e74726163742e000000000000000000000000000000000000000000000000006020830152604082019050919050565b6000610ceb60088361102b565b91507f776169742031356d0000000000000000000000000000000000000000000000006000830152602082019050919050565b6000610d2b60008361100f565b9150600082019050919050565b6000606083016000830151610d506000860182610b0d565b5060208301518482036020860152610d688282610ba0565b9150506040830151610d7d6040860182610d88565b508091505092915050565b610d91816110c4565b82525050565b610da0816110c4565b82525050565b6000610db182610d1e565b9150819050919050565b6000602082019050610dd06000830184610b1c565b92915050565b60006020820190508181036000830152610df08184610b2b565b905092915050565b60006020820190508181036000830152610e128184610bd9565b905092915050565b60006040820190508181036000830152610e348185610bd9565b9050610e436020830184610b1c565b9392505050565b60006060820190508181036000830152610e648186610bd9565b9050610e736020830185610b1c565b8181036040830152610e858184610bd9565b9050949350505050565b60006040820190508181036000830152610ea98185610bd9565b9050610eb86020830184610d97565b9392505050565b60006020820190508181036000830152610ed881610c12565b9050919050565b60006020820190508181036000830152610ef881610c78565b9050919050565b60006020820190508181036000830152610f1881610cde565b9050919050565b6000602082019050610f346000830184610d97565b92915050565b6000604082019050610f4f6000830185610d97565b8181036020830152610f618184610bd9565b90509392505050565b6000604051905081810181811067ffffffffffffffff82111715610f9157610f90611200565b5b8060405250919050565b600067ffffffffffffffff821115610fb657610fb5611200565b5b601f19601f8301169050602081019050919050565b6000819050602082019050919050565b600081519050919050565b600081519050919050565b6000602082019050919050565b600082825260208201905092915050565b600081905092915050565b600082825260208201905092915050565b600082825260208201905092915050565b6000611047826110c4565b9150611052836110c4565b9250827fffffffffffffffffffffffffffffffffffffffffffffffffffffffffffffffff0382111561108757611086611173565b5b828201905092915050565b600061109d826110a4565b9050919050565b600073ffffffffffffffffffffffffffffffffffffffff82169050919050565b6000819050919050565b82818337600083830152505050565b60005b838110156110fb5780820151818401526020810190506110e0565b8381111561110a576000848401525b50505050565b6000600282049050600182168061112857607f821691505b6020821081141561113c5761113b6111d1565b5b50919050565b600061114d826110c4565b9150611158836110c4565b925082611168576111676111a2565b5b828206905092915050565b7f4e487b7100000000000000000000000000000000000000000000000000000000600052601160045260246000fd5b7f4e487b7100000000000000000000000000000000000000000000000000000000600052601260045260246000fd5b7f4e487b7100000000000000000000000000000000000000000000000000000000600052602260045260246000fd5b7f4e487b7100000000000000000000000000000000000000000000000000000000600052604160045260246000fd5b6000601f19601f8301169050919050565b61124981611092565b811461125457600080fd5b5056fea26469706673582212208911fc2ec1d1a0fc37f0033eafc85ea557fbd7ceac2898c5f2e9fb34e930dda864736f6c63430008000033596f20796f2c2054686520636f6e74726163742069732066616e63792c206d616b6520746865204e46542043657274696669636174652046616e63792061732077656c6c2e",
  "linkReferences": {},
  "deployedLinkReferences": {}
}